:100000000C9434000C944A000C943E000C943E0076
:100010000C943E000C943E000C943E000C943E0068
:100020000C943E000C943E000C943E000C943E0058
:100030000C943E000C943E000C943E000C943E0048
:100040000C943E000C943E000C943E000C943E0038
:100050000C943E000C943E000C943E000C943E0028
:100060000C943E000C943E0011241FBECFEFD8E04C
:10007000DEBFCDBF0E9440000C9468000C940000CD
:1000800084E084B98BB982E08093690081E08DBB04
:100090007894FFCF1F920F920FB60F9211242F93D7
:1000A0008F939F932A9A2FEF88E09DE32150804001
:1000B0009040E1F700C0000095B184E0892785B940
:1000C0009F918F912F910F900FBE0F901F901895B9
:0400D000F894FFCFD2
:00000001FF
