S0140000444132435F4354325F4154322E73726563C8
S11300000C9434000C9446000C9446000C94460066
S11300100C9446000C9446000C9446000C94460044
S11300200C9446000C9446000C9446000C94460034
S11300300C9446000C9446000C9446000C94460024
S11300400C945B000C9446000C9446000C944600FF
S11300500C9446000C9446000C9446000C94460004
S11300600C9446000C94460011241FBECFEFD8E038
S1130070DEBFCDBF21E0A0E0B1E001C01D92A230FF
S1130080B207E1F70E9448000C9480000C94000031
S1130090229AEEE6F0E080818160808316BC789439
S11300A084B5806C84BD85B5856085BD3299FECFED
S11300B02A9A16BCFBCF1F920F920FB60F921124EF
S11300C08F939F9380910001909101018C3491054D
S11300D039F485B115B8109201011092000116BCD3
S11300E08091000190910101019690930101809308
S11300F000019F918F910F900FBE0F901F90189544
S1070100F894FFCF9D
S9030000FC
