S00E00005461736B5F312E73726563F3
S11300000C9434000C9446000C9446000C94460066
S11300100C9466010C9446000C9446000C94460023
S11300200C9446000C9446000C9446000C94460034
S11300300C9446000C9446000C9446000C94460024
S11300400C9446000C9446000C9446000C94460014
S11300500C9446000C9446000C9446000C94460004
S11300600C9446000C94460011241FBECFEFD8E038
S1130070DEBFCDBF21E0A0E0B1E001C01D92A13000
S1130080B207E1F70E9448000C949B010C94000015
S11300908FEF8AB982E08BB984B1866084B98FEF1F
S11300A09FEF9093870080938600E0E8F0E08081E2
S11300B080688083808182608083E1E8F0E08081D1
S11300C0886180838081816080837894E8E6F0E0B1
S11300D0808182608083D99AECE6F0E0808182603E
S11300E0808383E880937A0080EC80937C00EAE745
S11300F0F0E0A8E7B0E0C8E8D0E00F2EF2E32F2E3E
S1130100F3EF3F2EF02D0F2EFEE04F2EFDED5F2E70
S1130110F02D0F2EF8ED6F2EF0EB7F2EF02D0F2E1D
S1130120FDEB8F2EFAE99F2EF02D0F2EF2EAAF2E63
S1130130F4E8BF2EF02D0F2EF7E8CF2EFEE6DF2ECB
S1130140F02D0F2EFCE6EF2EF8E5FF2EF02D61E5E5
S113015072E446E35CE22BE136E1808180648083D3
S1130160808184FFFDCF8081806180831FEF81EED9
S113017094E0115080409040E1F700C000008D9160
S11301809C911197892B19F419821882E6CF8D91CD
S11301909C9111978D919C9111978436910518F437
S11301A039832883DACF8D919C91119784369105F8
S11301B048F08D919C911197883C910518F45983CE
S11301C04883CBCF8D919C911197883C910548F041
S11301D08D919C9111978C32914018F479836883A6
S11301E0BCCF8D919C9111978C32914048F08D91A8
S11301F09C9111978039914018F4F982E882ADCF2F
S11302008D919C9111978039914048F08D919C91EA
S11302101197843F914018F4D982C8829ECF8D9162
S11302209C911197843F914048F08D919C91119736
S11302308835924018F4B982A8828FCF8D919C9111
S113024011978835924048F08D919C9111978C3B81
S1130250924018F49982888280CF8D919C91119755
S11302608C3B924048F08D919C9111978032934041
S113027018F47982688271CF8D919C9111978032A4
S1130280934058F08D919C9111978438934028F4B1
S113029083EF96EC9983888360CF8D919C9111971D
S11302A08438934048F08D919C911197883E9340F7
S11302B018F45982488251CF8D919C9111978115E0
S11302C0944008F04ACF3982288247CF1F920F9278
S11302D00FB60F9211242F938F939F938091000157
S11302E0813081F4319B1FC02FEF85EA9EE02150BD
S11302F080409040E1F700C0000082E08BB910928A
S1130300000111C081110FC0319B0DC02FEF85EA90
S11303109EE0215080409040E1F700C000001BB8EF
S113032081E0809300019F918F912F910F900FBED8
S10D03300F901F901895F894FFCF6A
S9030000FC
