S00C0000444133422E737265631E
S11300000C9434000C9446000C9446000C94460066
S11300100C9446000C9446000C9446000C94460044
S11300200C9446000C9446000C9446000C94C100B9
S11300300C9446000C9446000C9446000C94460024
S11300400C9446000C9446000C9446000C94460014
S11300500C9446000C9446000C9446000C94460004
S11300600C9446000C94460011241FBECFEFD8E038
S1130070DEBFCDBF21E0A0E0B1E001C01D92A13000
S1130080B207E1F70E945A000C94FC000C940000A3
S113009088E08093C10086E08093C20087E6809365
S11300A0C4000895E0ECF0E0908195FFFDCF8093CB
S11300B0C60008950E94480085E480937C0085E88A
S11300C080937A0080E480938000E1E8F0E080810E
S11300D0856080831092000188E09DE390938900FD
S11300E080938800EFE6F0E08081866080837894D6
S11300F0CAE7D0E00F2EF8E7AF2EB12CF02D0F2E6B
S1130100F9E7CF2ED12CF02D0F2EF4E6EF2EF12CA3
S1130110F02D0F2EFAE08F2E912CF02D04E810E034
S1130120888180648883888184FFFDCF8881806191
S11301308883F5018081F601208190E0922BB7013C
S11301400E94D4003C0180E3860F0E945200C30148
S1130150B4010E94D400782E80E3860F0E945200DE
S113016080E3870D0E9452008DE00E945200F80146
S11301701182108210920001809100018823E1F322
S1130180CFCF1F920F920FB60F9211248F9310921C
S113019085001092840081E0809300018F910F907C
S11301A00FBE0F901F90189597FB072E16F400941E
S11301B007D077FD09D00E94E80007FC05D03EF483
S11301C0909581959F4F0895709561957F4F0895FF
S11301D0AA1BBB1B51E107C0AA1FBB1FA617B70769
S11301E010F0A61BB70B881F991F5A95A9F7809585
S10F01F09095BC01CD010895F894FFCF58
S9030000FC
