S0140000444132435F4354315F4154322E73726563C9
S11300000C9434000C943E000C943E000C943E007E
S11300100C943E000C943E000C943E000C943E0064
S11300200C943E000C943E000C943E000C943E0054
S11300300C943E000C943E000C943E000C943E0044
S11300400C943E000C943E000C943E000C943E0034
S11300500C943E000C943E000C943E000C943E0024
S11300600C943E000C943E0011241FBECFEFD8E048
S1130070DEBFCDBF0E9440000C945E000C940000D3
S113008087B117B8229A429A84B5806C84BD85B52D
S1130090846085BD3299FECF2A9A22E130E0A89A85
S11300A016BC81E190E0A89BFECFA89A0197D9F7EE
S11300B021503109A1F785B115B8ECCFF894FFCFE1
S9030000FC
