:100000000C9434000C9446000C9446000C9446006A
:100010000C9446000C9446000C9446000C94460048
:100020000C9446000C9446000C9446000C94A400DA
:100030000C9446000C9446000C9446000C94460028
:100040000C9446000C9446000C9446000C94460018
:100050000C9446000C9446000C9446000C94460008
:100060000C9446000C94460011241FBECFEFD8E03C
:10007000DEBFCDBF21E0A0E0B1E001C01D92A13004
:10008000B207E1F70E9448000C94D6000C940000DF
:10009000E1E8F0E080818B608083EFE6F0E0808132
:1000A00082608083789483E880937A0080EC8093E8
:1000B0007C008FE08AB9EAE7F0E0A8E7B0E0C8E8A2
:1000C000D0E04FE453EC0F2EFBE7EF2EF2E9FF2ECA
:1000D000F02D67EA71E623ED30E380818064808350
:1000E000808184FFFDCF8081806180838D919C9190
:1000F0001197892B19F439832883EFCF8D919C9127
:100100001197892B49F08D919C911197853F9140D2
:1001100018F479836883E1CF8D919C911197853F85
:10012000914048F08D919C911197893E934018F42D
:10013000F982E882D2CF8D919C911197893E9340AC
:1001400060F259834883C9CF1F920F920FB60F9266
:1001500011248F9380910001811108C089E08BB92F
:10016000809100018F5F809300011AC0813041F4BB
:1001700083E08BB9809100018F5F8093000110C0F4
:10018000823041F486E08BB9809100018F5F8093CB
:10019000000106C0833020F08CE08BB91092000182
:1001A0008F910F900FBE0F901F901895F894FFCF6E
:00000001FF
