S0140000444132435F4354335F4154322E73726563C7
S11300000C9434000C9446000C9446000C94460066
S11300100C9446000C9446000C9446000C94460044
S11300200C9446000C9446000C9446000C94460034
S11300300C9446000C9446000C945C000C9446000E
S11300400C9446000C9446000C9446000C94460014
S11300500C9446000C9446000C9446000C94460004
S11300600C9446000C94460011241FBECFEFD8E038
S1130070DEBFCDBF21E0A0E0B1E001C01D92A230FF
S1130080B207E1F70E9448000C9480000C94000031
S1130090229A8FEF87BD84B5826084BDEEE6F0E0DE
S11300A080818260808385B5856085BD789432992E
S11300B0FECF2A9A16BCFBCF1F920F920FB60F9257
S11300C011248F939F9380910001909101018C34AE
S11300D0910531F485B115B8109201011092000117
S11300E08091000190910101019690930101809308
S11300F000019F918F910F900FBE0F901F90189544
S1070100F894FFCF9D
S9030000FC
