S00F0000444132435F54312E7372656337
S11300000C9434000C943E000C943E000C943E007E
S11300100C943E000C943E000C943E000C943E0064
S11300200C943E000C943E000C943E000C943E0054
S11300300C943E000C943E000C943E000C943E0044
S11300400C943E000C943E000C943E000C943E0034
S11300500C943E000C943E000C943E000C943E0024
S11300600C943E000C943E0011241FBECFEFD8E048
S1130070DEBFCDBF0E9440000C947C000C940000B5
S1130080229A80E484BD83E085BD16BC67E742E024
S113009021E05FE42A9A81E090E0A89BFECF8A3AAF
S11300A031E093074CF067BD16BC45BBA99BFECF5E
S11300B035B3336035BB16BC25BB01968B3A31E0B2
S11300C0930759F785B115B881E090E0A89BFECF5E
S11300D08C3131E093074CF057BD16BC45BBA99B4E
S11300E0FECF35B3336035BB16BC25BB01968D31CD
S10F00F031E0930759F7CECFF894FFCF0E
S9030000FC
