:100000000C9434000C9446000C9446000C9446006A
:100010000C9446000C9446000C9446000C94460048
:100020000C9446000C9446000C9446000C94460038
:100030000C9446000C9446000C9458000C94460016
:100040000C9446000C9446000C9446000C94460018
:100050000C9446000C9446000C9446000C94460008
:100060000C9446000C94460011241FBECFEFD8E03C
:10007000DEBFCDBF21E0A0E0B1E001C01D92A43001
:10008000B207E1F70E9448000C9491000C94000024
:10009000229A8FEF87BD84B5826084BDEEE6F0E0E2
:1000A00080818260808385B5856085BD7894FFCF2F
:1000B0001F920F920FB60F9211248F939F938091EE
:1000C0000201909103014B97E1F485B115B880913D
:1000D000000190910101429751F42A9A1092010176
:1000E00010920001109203011092020113C080913E
:1000F000000190910101019690930101809300010C
:1001000009C080910201909103010196909303012F
:10011000809302019F918F910F900FBE0F901F90BF
:060120001895F894FFCFD2
:00000001FF
